{
  "_format": "hh-sol-artifact-1",
  "contractName": "InversoX_NFTMarketplace",
  "sourceName": "contracts/InversoX_Nft_Marketplace.sol",
  "abi": [
    {
      "inputs": [],
      "stateMutability": "nonpayable",
      "type": "constructor"
    },
    {
      "anonymous": false,
      "inputs": [
        {
          "indexed": true,
          "internalType": "address",
          "name": "owner",
          "type": "address"
        },
        {
          "indexed": true,
          "internalType": "address",
          "name": "approved",
          "type": "address"
        },
        {
          "indexed": true,
          "internalType": "uint256",
          "name": "tokenId",
          "type": "uint256"
        }
      ],
      "name": "Approval",
      "type": "event"
    },
    {
      "anonymous": false,
      "inputs": [
        {
          "indexed": true,
          "internalType": "address",
          "name": "owner",
          "type": "address"
        },
        {
          "indexed": true,
          "internalType": "address",
          "name": "operator",
          "type": "address"
        },
        {
          "indexed": false,
          "internalType": "bool",
          "name": "approved",
          "type": "bool"
        }
      ],
      "name": "ApprovalForAll",
      "type": "event"
    },
    {
      "anonymous": false,
      "inputs": [
        {
          "indexed": true,
          "internalType": "uint256",
          "name": "tokenId",
          "type": "uint256"
        },
        {
          "indexed": false,
          "internalType": "address",
          "name": "seller",
          "type": "address"
        },
        {
          "indexed": false,
          "internalType": "address",
          "name": "owner",
          "type": "address"
        },
        {
          "indexed": false,
          "internalType": "uint256",
          "name": "price",
          "type": "uint256"
        },
        {
          "indexed": false,
          "internalType": "bool",
          "name": "sold",
          "type": "bool"
        }
      ],
      "name": "MarketItemCreated",
      "type": "event"
    },
    {
      "anonymous": false,
      "inputs": [
        {
          "indexed": true,
          "internalType": "address",
          "name": "from",
          "type": "address"
        },
        {
          "indexed": true,
          "internalType": "address",
          "name": "to",
          "type": "address"
        },
        {
          "indexed": true,
          "internalType": "uint256",
          "name": "tokenId",
          "type": "uint256"
        }
      ],
      "name": "Transfer",
      "type": "event"
    },
    {
      "inputs": [
        {
          "internalType": "address",
          "name": "to",
          "type": "address"
        },
        {
          "internalType": "uint256",
          "name": "tokenId",
          "type": "uint256"
        }
      ],
      "name": "approve",
      "outputs": [],
      "stateMutability": "nonpayable",
      "type": "function"
    },
    {
      "inputs": [
        {
          "internalType": "address",
          "name": "owner",
          "type": "address"
        }
      ],
      "name": "balanceOf",
      "outputs": [
        {
          "internalType": "uint256",
          "name": "",
          "type": "uint256"
        }
      ],
      "stateMutability": "view",
      "type": "function"
    },
    {
      "inputs": [
        {
          "internalType": "uint256",
          "name": "tokenId",
          "type": "uint256"
        }
      ],
      "name": "createMarketSale",
      "outputs": [],
      "stateMutability": "payable",
      "type": "function"
    },
    {
      "inputs": [
        {
          "internalType": "string",
          "name": "tokenURI",
          "type": "string"
        },
        {
          "internalType": "uint256",
          "name": "price",
          "type": "uint256"
        }
      ],
      "name": "createToken",
      "outputs": [
        {
          "internalType": "uint256",
          "name": "",
          "type": "uint256"
        }
      ],
      "stateMutability": "payable",
      "type": "function"
    },
    {
      "inputs": [],
      "name": "fetchItemsListed",
      "outputs": [
        {
          "components": [
            {
              "internalType": "uint256",
              "name": "tokenId",
              "type": "uint256"
            },
            {
              "internalType": "address payable",
              "name": "seller",
              "type": "address"
            },
            {
              "internalType": "address payable",
              "name": "owner",
              "type": "address"
            },
            {
              "internalType": "uint256",
              "name": "price",
              "type": "uint256"
            },
            {
              "internalType": "bool",
              "name": "sold",
              "type": "bool"
            }
          ],
          "internalType": "struct InversoX_NFTMarketplace.MarketItem[]",
          "name": "",
          "type": "tuple[]"
        }
      ],
      "stateMutability": "view",
      "type": "function"
    },
    {
      "inputs": [],
      "name": "fetchMarketItems",
      "outputs": [
        {
          "components": [
            {
              "internalType": "uint256",
              "name": "tokenId",
              "type": "uint256"
            },
            {
              "internalType": "address payable",
              "name": "seller",
              "type": "address"
            },
            {
              "internalType": "address payable",
              "name": "owner",
              "type": "address"
            },
            {
              "internalType": "uint256",
              "name": "price",
              "type": "uint256"
            },
            {
              "internalType": "bool",
              "name": "sold",
              "type": "bool"
            }
          ],
          "internalType": "struct InversoX_NFTMarketplace.MarketItem[]",
          "name": "",
          "type": "tuple[]"
        }
      ],
      "stateMutability": "view",
      "type": "function"
    },
    {
      "inputs": [],
      "name": "fetchMyNFTs",
      "outputs": [
        {
          "components": [
            {
              "internalType": "uint256",
              "name": "tokenId",
              "type": "uint256"
            },
            {
              "internalType": "address payable",
              "name": "seller",
              "type": "address"
            },
            {
              "internalType": "address payable",
              "name": "owner",
              "type": "address"
            },
            {
              "internalType": "uint256",
              "name": "price",
              "type": "uint256"
            },
            {
              "internalType": "bool",
              "name": "sold",
              "type": "bool"
            }
          ],
          "internalType": "struct InversoX_NFTMarketplace.MarketItem[]",
          "name": "",
          "type": "tuple[]"
        }
      ],
      "stateMutability": "view",
      "type": "function"
    },
    {
      "inputs": [
        {
          "internalType": "uint256",
          "name": "tokenId",
          "type": "uint256"
        }
      ],
      "name": "getApproved",
      "outputs": [
        {
          "internalType": "address",
          "name": "",
          "type": "address"
        }
      ],
      "stateMutability": "view",
      "type": "function"
    },
    {
      "inputs": [],
      "name": "getListingPrice",
      "outputs": [
        {
          "internalType": "uint256",
          "name": "",
          "type": "uint256"
        }
      ],
      "stateMutability": "view",
      "type": "function"
    },
    {
      "inputs": [
        {
          "internalType": "address",
          "name": "owner",
          "type": "address"
        },
        {
          "internalType": "address",
          "name": "operator",
          "type": "address"
        }
      ],
      "name": "isApprovedForAll",
      "outputs": [
        {
          "internalType": "bool",
          "name": "",
          "type": "bool"
        }
      ],
      "stateMutability": "view",
      "type": "function"
    },
    {
      "inputs": [],
      "name": "name",
      "outputs": [
        {
          "internalType": "string",
          "name": "",
          "type": "string"
        }
      ],
      "stateMutability": "view",
      "type": "function"
    },
    {
      "inputs": [
        {
          "internalType": "uint256",
          "name": "tokenId",
          "type": "uint256"
        }
      ],
      "name": "ownerOf",
      "outputs": [
        {
          "internalType": "address",
          "name": "",
          "type": "address"
        }
      ],
      "stateMutability": "view",
      "type": "function"
    },
    {
      "inputs": [
        {
          "internalType": "uint256",
          "name": "tokenId",
          "type": "uint256"
        },
        {
          "internalType": "uint256",
          "name": "price",
          "type": "uint256"
        }
      ],
      "name": "resellToken",
      "outputs": [],
      "stateMutability": "payable",
      "type": "function"
    },
    {
      "inputs": [
        {
          "internalType": "address",
          "name": "from",
          "type": "address"
        },
        {
          "internalType": "address",
          "name": "to",
          "type": "address"
        },
        {
          "internalType": "uint256",
          "name": "tokenId",
          "type": "uint256"
        }
      ],
      "name": "safeTransferFrom",
      "outputs": [],
      "stateMutability": "nonpayable",
      "type": "function"
    },
    {
      "inputs": [
        {
          "internalType": "address",
          "name": "from",
          "type": "address"
        },
        {
          "internalType": "address",
          "name": "to",
          "type": "address"
        },
        {
          "internalType": "uint256",
          "name": "tokenId",
          "type": "uint256"
        },
        {
          "internalType": "bytes",
          "name": "data",
          "type": "bytes"
        }
      ],
      "name": "safeTransferFrom",
      "outputs": [],
      "stateMutability": "nonpayable",
      "type": "function"
    },
    {
      "inputs": [
        {
          "internalType": "address",
          "name": "operator",
          "type": "address"
        },
        {
          "internalType": "bool",
          "name": "approved",
          "type": "bool"
        }
      ],
      "name": "setApprovalForAll",
      "outputs": [],
      "stateMutability": "nonpayable",
      "type": "function"
    },
    {
      "inputs": [
        {
          "internalType": "bytes4",
          "name": "interfaceId",
          "type": "bytes4"
        }
      ],
      "name": "supportsInterface",
      "outputs": [
        {
          "internalType": "bool",
          "name": "",
          "type": "bool"
        }
      ],
      "stateMutability": "view",
      "type": "function"
    },
    {
      "inputs": [],
      "name": "symbol",
      "outputs": [
        {
          "internalType": "string",
          "name": "",
          "type": "string"
        }
      ],
      "stateMutability": "view",
      "type": "function"
    },
    {
      "inputs": [
        {
          "internalType": "uint256",
          "name": "tokenId",
          "type": "uint256"
        }
      ],
      "name": "tokenURI",
      "outputs": [
        {
          "internalType": "string",
          "name": "",
          "type": "string"
        }
      ],
      "stateMutability": "view",
      "type": "function"
    },
    {
      "inputs": [
        {
          "internalType": "address",
          "name": "from",
          "type": "address"
        },
        {
          "internalType": "address",
          "name": "to",
          "type": "address"
        },
        {
          "internalType": "uint256",
          "name": "tokenId",
          "type": "uint256"
        }
      ],
      "name": "transferFrom",
      "outputs": [],
      "stateMutability": "nonpayable",
      "type": "function"
    },
    {
      "inputs": [
        {
          "internalType": "uint256",
          "name": "_listingPrice",
          "type": "uint256"
        }
      ],
      "name": "updateListingPrice",
      "outputs": [],
      "stateMutability": "payable",
      "type": "function"
    }
  ],
  "bytecode": "0x60806040526658d15e176280006009553480156200001c57600080fd5b506040518060400160405280601081526020017f4d657461766572736520546f6b656e73000000000000000000000000000000008152506040518060400160405280600481526020017f4d455454000000000000000000000000000000000000000000000000000000008152508160009080519060200190620000a192919062000104565b508060019080519060200190620000ba92919062000104565b50505033600a60006101000a81548173ffffffffffffffffffffffffffffffffffffffff021916908373ffffffffffffffffffffffffffffffffffffffff16021790555062000219565b8280546200011290620001b4565b90600052602060002090601f01602090048101928262000136576000855562000182565b82601f106200015157805160ff191683800117855562000182565b8280016001018555821562000182579182015b828111156200018157825182559160200191906001019062000164565b5b50905062000191919062000195565b5090565b5b80821115620001b057600081600090555060010162000196565b5090565b60006002820490506001821680620001cd57607f821691505b60208210811415620001e457620001e3620001ea565b5b50919050565b7f4e487b7100000000000000000000000000000000000000000000000000000000600052602260045260246000fd5b61445280620002296000396000f3fe60806040526004361061012a5760003560e01c80636352211e116100ab578063ae677aa31161006f578063ae677aa3146103f9578063b88d4fde14610415578063be9af5361461043e578063c87b56dd1461045a578063e219fc7514610497578063e985e9c5146104b35761012a565b80636352211e146102fb57806370a082311461033857806372b3b6201461037557806395d89b41146103a5578063a22cb465146103d05761012a565b806312e85585116100f257806312e8558514610228578063202e37401461025357806323b872dd1461027e57806342842e0e146102a757806345f8fa80146102d05761012a565b806301ffc9a71461012f57806306fdde031461016c578063081812fc14610197578063095ea7b3146101d45780630f08efe0146101fd575b600080fd5b34801561013b57600080fd5b50610156600480360381019061015191906131ff565b6104f0565b6040516101639190613870565b60405180910390f35b34801561017857600080fd5b506101816105d2565b60405161018e919061388b565b60405180910390f35b3480156101a357600080fd5b506101be60048036038101906101b991906132a5565b610664565b6040516101cb91906137a2565b60405180910390f35b3480156101e057600080fd5b506101fb60048036038101906101f691906131c3565b6106aa565b005b34801561020957600080fd5b506102126107c2565b60405161021f919061384e565b60405180910390f35b34801561023457600080fd5b5061023d610a77565b60405161024a9190613b0d565b60405180910390f35b34801561025f57600080fd5b50610268610a81565b604051610275919061384e565b60405180910390f35b34801561028a57600080fd5b506102a560048036038101906102a091906130bd565b610dbb565b005b3480156102b357600080fd5b506102ce60048036038101906102c991906130bd565b610e1b565b005b3480156102dc57600080fd5b506102e5610e3b565b6040516102f2919061384e565b60405180910390f35b34801561030757600080fd5b50610322600480360381019061031d91906132a5565b611175565b60405161032f91906137a2565b60405180910390f35b34801561034457600080fd5b5061035f600480360381019061035a9190613058565b6111fc565b60405161036c9190613b0d565b60405180910390f35b61038f600480360381019061038a9190613251565b6112b4565b60405161039c9190613b0d565b60405180910390f35b3480156103b157600080fd5b506103ba6112f6565b6040516103c7919061388b565b60405180910390f35b3480156103dc57600080fd5b506103f760048036038101906103f29190613187565b611388565b005b610413600480360381019061040e91906132a5565b61139e565b005b34801561042157600080fd5b5061043c6004803603810190610437919061310c565b6114c8565b005b610458600480360381019061045391906132a5565b61152a565b005b34801561046657600080fd5b50610481600480360381019061047c91906132a5565b611762565b60405161048e919061388b565b60405180910390f35b6104b160048036038101906104ac91906132ce565b611875565b005b3480156104bf57600080fd5b506104da60048036038101906104d59190613081565b611a6a565b6040516104e79190613870565b60405180910390f35b60007f80ac58cd000000000000000000000000000000000000000000000000000000007bffffffffffffffffffffffffffffffffffffffffffffffffffffffff1916827bffffffffffffffffffffffffffffffffffffffffffffffffffffffff191614806105bb57507f5b5e139f000000000000000000000000000000000000000000000000000000007bffffffffffffffffffffffffffffffffffffffffffffffffffffffff1916827bffffffffffffffffffffffffffffffffffffffffffffffffffffffff1916145b806105cb57506105ca82611afe565b5b9050919050565b6060600080546105e190613d7d565b80601f016020809104026020016040519081016040528092919081815260200182805461060d90613d7d565b801561065a5780601f1061062f5761010080835404028352916020019161065a565b820191906000526020600020905b81548152906001019060200180831161063d57829003601f168201915b5050505050905090565b600061066f82611b68565b6004600083815260200190815260200160002060009054906101000a900473ffffffffffffffffffffffffffffffffffffffff169050919050565b60006106b582611175565b90508073ffffffffffffffffffffffffffffffffffffffff168373ffffffffffffffffffffffffffffffffffffffff161415610726576040517f08c379a000000000000000000000000000000000000000000000000000000000815260040161071d90613a6d565b60405180910390fd5b8073ffffffffffffffffffffffffffffffffffffffff16610745611bb3565b73ffffffffffffffffffffffffffffffffffffffff16148061077457506107738161076e611bb3565b611a6a565b5b6107b3576040517f08c379a00000000000000000000000000000000000000000000000000000000081526004016107aa90613aad565b60405180910390fd5b6107bd8383611bbb565b505050565b606060006107d06007611c74565b905060006107de6008611c74565b6107e86007611c74565b6107f29190613c81565b90506000808267ffffffffffffffff811115610837577f4e487b7100000000000000000000000000000000000000000000000000000000600052604160045260246000fd5b60405190808252806020026020018201604052801561087057816020015b61085d612e1f565b8152602001906001900390816108555790505b50905060005b84811015610a6c573073ffffffffffffffffffffffffffffffffffffffff16600b60006001846108a69190613c2b565b815260200190815260200160002060020160009054906101000a900473ffffffffffffffffffffffffffffffffffffffff1673ffffffffffffffffffffffffffffffffffffffff161415610a595760006001826109039190613c2b565b90506000600b60008381526020019081526020016000209050806040518060a0016040529081600082015481526020016001820160009054906101000a900473ffffffffffffffffffffffffffffffffffffffff1673ffffffffffffffffffffffffffffffffffffffff1673ffffffffffffffffffffffffffffffffffffffff1681526020016002820160009054906101000a900473ffffffffffffffffffffffffffffffffffffffff1673ffffffffffffffffffffffffffffffffffffffff1673ffffffffffffffffffffffffffffffffffffffff168152602001600382015481526020016004820160009054906101000a900460ff161515151581525050848681518110610a3c577f4e487b7100000000000000000000000000000000000000000000000000000000600052603260045260246000fd5b6020026020010181905250600185610a549190613c2b565b945050505b8080610a6490613de0565b915050610876565b508094505050505090565b6000600954905090565b60606000610a8f6007611c74565b905060008060005b83811015610b38573373ffffffffffffffffffffffffffffffffffffffff16600b6000600184610ac79190613c2b565b815260200190815260200160002060020160009054906101000a900473ffffffffffffffffffffffffffffffffffffffff1673ffffffffffffffffffffffffffffffffffffffff161415610b2557600183610b229190613c2b565b92505b8080610b3090613de0565b915050610a97565b5060008267ffffffffffffffff811115610b7b577f4e487b7100000000000000000000000000000000000000000000000000000000600052604160045260246000fd5b604051908082528060200260200182016040528015610bb457816020015b610ba1612e1f565b815260200190600190039081610b995790505b50905060005b84811015610db0573373ffffffffffffffffffffffffffffffffffffffff16600b6000600184610bea9190613c2b565b815260200190815260200160002060020160009054906101000a900473ffffffffffffffffffffffffffffffffffffffff1673ffffffffffffffffffffffffffffffffffffffff161415610d9d576000600182610c479190613c2b565b90506000600b60008381526020019081526020016000209050806040518060a0016040529081600082015481526020016001820160009054906101000a900473ffffffffffffffffffffffffffffffffffffffff1673ffffffffffffffffffffffffffffffffffffffff1673ffffffffffffffffffffffffffffffffffffffff1681526020016002820160009054906101000a900473ffffffffffffffffffffffffffffffffffffffff1673ffffffffffffffffffffffffffffffffffffffff1673ffffffffffffffffffffffffffffffffffffffff168152602001600382015481526020016004820160009054906101000a900460ff161515151581525050848681518110610d80577f4e487b7100000000000000000000000000000000000000000000000000000000600052603260045260246000fd5b6020026020010181905250600185610d989190613c2b565b945050505b8080610da890613de0565b915050610bba565b508094505050505090565b610dcc610dc6611bb3565b82611c82565b610e0b576040517f08c379a0000000000000000000000000000000000000000000000000000000008152600401610e02906138ad565b60405180910390fd5b610e16838383611d17565b505050565b610e36838383604051806020016040528060008152506114c8565b505050565b60606000610e496007611c74565b905060008060005b83811015610ef2573373ffffffffffffffffffffffffffffffffffffffff16600b6000600184610e819190613c2b565b815260200190815260200160002060010160009054906101000a900473ffffffffffffffffffffffffffffffffffffffff1673ffffffffffffffffffffffffffffffffffffffff161415610edf57600183610edc9190613c2b565b92505b8080610eea90613de0565b915050610e51565b5060008267ffffffffffffffff811115610f35577f4e487b7100000000000000000000000000000000000000000000000000000000600052604160045260246000fd5b604051908082528060200260200182016040528015610f6e57816020015b610f5b612e1f565b815260200190600190039081610f535790505b50905060005b8481101561116a573373ffffffffffffffffffffffffffffffffffffffff16600b6000600184610fa49190613c2b565b815260200190815260200160002060010160009054906101000a900473ffffffffffffffffffffffffffffffffffffffff1673ffffffffffffffffffffffffffffffffffffffff1614156111575760006001826110019190613c2b565b90506000600b60008381526020019081526020016000209050806040518060a0016040529081600082015481526020016001820160009054906101000a900473ffffffffffffffffffffffffffffffffffffffff1673ffffffffffffffffffffffffffffffffffffffff1673ffffffffffffffffffffffffffffffffffffffff1681526020016002820160009054906101000a900473ffffffffffffffffffffffffffffffffffffffff1673ffffffffffffffffffffffffffffffffffffffff1673ffffffffffffffffffffffffffffffffffffffff168152602001600382015481526020016004820160009054906101000a900460ff16151515158152505084868151811061113a577f4e487b7100000000000000000000000000000000000000000000000000000000600052603260045260246000fd5b60200260200101819052506001856111529190613c2b565b945050505b808061116290613de0565b915050610f74565b508094505050505090565b60008061118183612011565b9050600073ffffffffffffffffffffffffffffffffffffffff168173ffffffffffffffffffffffffffffffffffffffff1614156111f3576040517f08c379a00000000000000000000000000000000000000000000000000000000081526004016111ea90613a4d565b60405180910390fd5b80915050919050565b60008073ffffffffffffffffffffffffffffffffffffffff168273ffffffffffffffffffffffffffffffffffffffff16141561126d576040517f08c379a00000000000000000000000000000000000000000000000000000000081526004016112649061398d565b60405180910390fd5b600360008373ffffffffffffffffffffffffffffffffffffffff1673ffffffffffffffffffffffffffffffffffffffff168152602001908152602001600020549050919050565b60006112c0600761204e565b60006112cc6007611c74565b90506112d83382612064565b6112e28185612282565b6112ec81846122f6565b8091505092915050565b60606001805461130590613d7d565b80601f016020809104026020016040519081016040528092919081815260200182805461133190613d7d565b801561137e5780601f106113535761010080835404028352916020019161137e565b820191906000526020600020905b81548152906001019060200180831161136157829003601f168201915b5050505050905090565b61139a611393611bb3565b83836124f9565b5050565b600a60009054906101000a900473ffffffffffffffffffffffffffffffffffffffff1673ffffffffffffffffffffffffffffffffffffffff163373ffffffffffffffffffffffffffffffffffffffff161461142e576040517f08c379a000000000000000000000000000000000000000000000000000000000815260040161142590613a2d565b60405180910390fd5b3373ffffffffffffffffffffffffffffffffffffffff16600a60009054906101000a900473ffffffffffffffffffffffffffffffffffffffff1673ffffffffffffffffffffffffffffffffffffffff16146114be576040517f08c379a00000000000000000000000000000000000000000000000000000000081526004016114b590613acd565b60405180910390fd5b8060098190555050565b6114d96114d3611bb3565b83611c82565b611518576040517f08c379a000000000000000000000000000000000000000000000000000000000815260040161150f906138ad565b60405180910390fd5b61152484848484612666565b50505050565b6000600b6000838152602001908152602001600020600301549050803414611587576040517f08c379a000000000000000000000000000000000000000000000000000000000815260040161157e906139cd565b60405180910390fd5b33600b600084815260200190815260200160002060020160006101000a81548173ffffffffffffffffffffffffffffffffffffffff021916908373ffffffffffffffffffffffffffffffffffffffff1602179055506001600b600084815260200190815260200160002060040160006101000a81548160ff0219169083151502179055506000600b600084815260200190815260200160002060010160006101000a81548173ffffffffffffffffffffffffffffffffffffffff021916908373ffffffffffffffffffffffffffffffffffffffff16021790555061166b600861204e565b611676303384611d17565b600a60009054906101000a900473ffffffffffffffffffffffffffffffffffffffff1673ffffffffffffffffffffffffffffffffffffffff166108fc6009549081150290604051600060405180830381858888f193505050501580156116e0573d6000803e3d6000fd5b50600b600083815260200190815260200160002060010160009054906101000a900473ffffffffffffffffffffffffffffffffffffffff1673ffffffffffffffffffffffffffffffffffffffff166108fc349081150290604051600060405180830381858888f1935050505015801561175d573d6000803e3d6000fd5b505050565b606061176d82611b68565b600060066000848152602001908152602001600020805461178d90613d7d565b80601f01602080910402602001604051908101604052809291908181526020018280546117b990613d7d565b80156118065780601f106117db57610100808354040283529160200191611806565b820191906000526020600020905b8154815290600101906020018083116117e957829003601f168201915b5050505050905060006118176126c2565b905060008151141561182d578192505050611870565b60008251111561186257808260405160200161184a92919061377e565b60405160208183030381529060405292505050611870565b61186b846126d9565b925050505b919050565b3373ffffffffffffffffffffffffffffffffffffffff16600b600084815260200190815260200160002060020160009054906101000a900473ffffffffffffffffffffffffffffffffffffffff1673ffffffffffffffffffffffffffffffffffffffff1614611919576040517f08c379a000000000000000000000000000000000000000000000000000000000815260040161191090613a0d565b60405180910390fd5b600954341461195d576040517f08c379a000000000000000000000000000000000000000000000000000000000815260040161195490613a8d565b60405180910390fd5b6000600b600084815260200190815260200160002060040160006101000a81548160ff02191690831515021790555080600b60008481526020019081526020016000206003018190555033600b600084815260200190815260200160002060010160006101000a81548173ffffffffffffffffffffffffffffffffffffffff021916908373ffffffffffffffffffffffffffffffffffffffff16021790555030600b600084815260200190815260200160002060020160006101000a81548173ffffffffffffffffffffffffffffffffffffffff021916908373ffffffffffffffffffffffffffffffffffffffff160217905550611a5b6008612741565b611a66333084611d17565b5050565b6000600560008473ffffffffffffffffffffffffffffffffffffffff1673ffffffffffffffffffffffffffffffffffffffff16815260200190815260200160002060008373ffffffffffffffffffffffffffffffffffffffff1673ffffffffffffffffffffffffffffffffffffffff16815260200190815260200160002060009054906101000a900460ff16905092915050565b60007f01ffc9a7000000000000000000000000000000000000000000000000000000007bffffffffffffffffffffffffffffffffffffffffffffffffffffffff1916827bffffffffffffffffffffffffffffffffffffffffffffffffffffffff1916149050919050565b611b718161279d565b611bb0576040517f08c379a0000000000000000000000000000000000000000000000000000000008152600401611ba790613a4d565b60405180910390fd5b50565b600033905090565b816004600083815260200190815260200160002060006101000a81548173ffffffffffffffffffffffffffffffffffffffff021916908373ffffffffffffffffffffffffffffffffffffffff160217905550808273ffffffffffffffffffffffffffffffffffffffff16611c2e83611175565b73ffffffffffffffffffffffffffffffffffffffff167f8c5be1e5ebec7d5bd14f71427d1e84f3dd0314c0f7b2291e5b200ac8c7c3b92560405160405180910390a45050565b600081600001549050919050565b600080611c8e83611175565b90508073ffffffffffffffffffffffffffffffffffffffff168473ffffffffffffffffffffffffffffffffffffffff161480611cd05750611ccf8185611a6a565b5b80611d0e57508373ffffffffffffffffffffffffffffffffffffffff16611cf684610664565b73ffffffffffffffffffffffffffffffffffffffff16145b91505092915050565b8273ffffffffffffffffffffffffffffffffffffffff16611d3782611175565b73ffffffffffffffffffffffffffffffffffffffff1614611d8d576040517f08c379a0000000000000000000000000000000000000000000000000000000008152600401611d849061390d565b60405180910390fd5b600073ffffffffffffffffffffffffffffffffffffffff168273ffffffffffffffffffffffffffffffffffffffff161415611dfd576040517f08c379a0000000000000000000000000000000000000000000000000000000008152600401611df49061394d565b60405180910390fd5b611e0a83838360016127de565b8273ffffffffffffffffffffffffffffffffffffffff16611e2a82611175565b73ffffffffffffffffffffffffffffffffffffffff1614611e80576040517f08c379a0000000000000000000000000000000000000000000000000000000008152600401611e779061390d565b60405180910390fd5b6004600082815260200190815260200160002060006101000a81549073ffffffffffffffffffffffffffffffffffffffff02191690556001600360008573ffffffffffffffffffffffffffffffffffffffff1673ffffffffffffffffffffffffffffffffffffffff168152602001908152602001600020600082825403925050819055506001600360008473ffffffffffffffffffffffffffffffffffffffff1673ffffffffffffffffffffffffffffffffffffffff16815260200190815260200160002060008282540192505081905550816002600083815260200190815260200160002060006101000a81548173ffffffffffffffffffffffffffffffffffffffff021916908373ffffffffffffffffffffffffffffffffffffffff160217905550808273ffffffffffffffffffffffffffffffffffffffff168473ffffffffffffffffffffffffffffffffffffffff167fddf252ad1be2c89b69c2b068fc378daa952ba7f163c4a11628f55a4df523b3ef60405160405180910390a461200c8383836001612904565b505050565b60006002600083815260200190815260200160002060009054906101000a900473ffffffffffffffffffffffffffffffffffffffff169050919050565b6001816000016000828254019250508190555050565b600073ffffffffffffffffffffffffffffffffffffffff168273ffffffffffffffffffffffffffffffffffffffff1614156120d4576040517f08c379a00000000000000000000000000000000000000000000000000000000081526004016120cb906139ed565b60405180910390fd5b6120dd8161279d565b1561211d576040517f08c379a00000000000000000000000000000000000000000000000000000000081526004016121149061392d565b60405180910390fd5b61212b6000838360016127de565b6121348161279d565b15612174576040517f08c379a000000000000000000000000000000000000000000000000000000000815260040161216b9061392d565b60405180910390fd5b6001600360008473ffffffffffffffffffffffffffffffffffffffff1673ffffffffffffffffffffffffffffffffffffffff16815260200190815260200160002060008282540192505081905550816002600083815260200190815260200160002060006101000a81548173ffffffffffffffffffffffffffffffffffffffff021916908373ffffffffffffffffffffffffffffffffffffffff160217905550808273ffffffffffffffffffffffffffffffffffffffff16600073ffffffffffffffffffffffffffffffffffffffff167fddf252ad1be2c89b69c2b068fc378daa952ba7f163c4a11628f55a4df523b3ef60405160405180910390a461227e600083836001612904565b5050565b61228b8261279d565b6122ca576040517f08c379a00000000000000000000000000000000000000000000000000000000081526004016122c1906139ad565b60405180910390fd5b806006600084815260200190815260200160002090805190602001906122f1929190612e7c565b505050565b60008111612339576040517f08c379a000000000000000000000000000000000000000000000000000000000815260040161233090613aed565b60405180910390fd5b600954341461237d576040517f08c379a000000000000000000000000000000000000000000000000000000000815260040161237490613a8d565b60405180910390fd5b6040518060a001604052808381526020013373ffffffffffffffffffffffffffffffffffffffff1681526020013073ffffffffffffffffffffffffffffffffffffffff16815260200182815260200160001515815250600b60008481526020019081526020016000206000820151816000015560208201518160010160006101000a81548173ffffffffffffffffffffffffffffffffffffffff021916908373ffffffffffffffffffffffffffffffffffffffff16021790555060408201518160020160006101000a81548173ffffffffffffffffffffffffffffffffffffffff021916908373ffffffffffffffffffffffffffffffffffffffff1602179055506060820151816003015560808201518160040160006101000a81548160ff0219169083151502179055509050506124b6333084611d17565b817fb640004f1d14576d0c209e240cad0410e0d8c0c33a09375861fbadae2588a98d33308460006040516124ed94939291906137bd565b60405180910390a25050565b8173ffffffffffffffffffffffffffffffffffffffff168373ffffffffffffffffffffffffffffffffffffffff161415612568576040517f08c379a000000000000000000000000000000000000000000000000000000000815260040161255f9061396d565b60405180910390fd5b80600560008573ffffffffffffffffffffffffffffffffffffffff1673ffffffffffffffffffffffffffffffffffffffff16815260200190815260200160002060008473ffffffffffffffffffffffffffffffffffffffff1673ffffffffffffffffffffffffffffffffffffffff16815260200190815260200160002060006101000a81548160ff0219169083151502179055508173ffffffffffffffffffffffffffffffffffffffff168373ffffffffffffffffffffffffffffffffffffffff167f17307eab39ab6107e8899845ad3d59bd9653f200f220920489ca2b5937696c31836040516126599190613870565b60405180910390a3505050565b612671848484611d17565b61267d8484848461290a565b6126bc576040517f08c379a00000000000000000000000000000000000000000000000000000000081526004016126b3906138ed565b60405180910390fd5b50505050565b606060405180602001604052806000815250905090565b60606126e482611b68565b60006126ee6126c2565b9050600081511161270e5760405180602001604052806000815250612739565b8061271884612aa1565b60405160200161272992919061377e565b6040516020818303038152906040525b915050919050565b6000816000015490506000811161278d576040517f08c379a0000000000000000000000000000000000000000000000000000000008152600401612784906138cd565b60405180910390fd5b6001810382600001819055505050565b60008073ffffffffffffffffffffffffffffffffffffffff166127bf83612011565b73ffffffffffffffffffffffffffffffffffffffff1614159050919050565b60018111156128fe57600073ffffffffffffffffffffffffffffffffffffffff168473ffffffffffffffffffffffffffffffffffffffff16146128725780600360008673ffffffffffffffffffffffffffffffffffffffff1673ffffffffffffffffffffffffffffffffffffffff168152602001908152602001600020600082825461286a9190613c81565b925050819055505b600073ffffffffffffffffffffffffffffffffffffffff168373ffffffffffffffffffffffffffffffffffffffff16146128fd5780600360008573ffffffffffffffffffffffffffffffffffffffff1673ffffffffffffffffffffffffffffffffffffffff16815260200190815260200160002060008282546128f59190613c2b565b925050819055505b5b50505050565b50505050565b600061292b8473ffffffffffffffffffffffffffffffffffffffff16612bc5565b15612a94578373ffffffffffffffffffffffffffffffffffffffff1663150b7a02612954611bb3565b8786866040518563ffffffff1660e01b81526004016129769493929190613802565b602060405180830381600087803b15801561299057600080fd5b505af19250505080156129c157506040513d601f19601f820116820180604052508101906129be9190613228565b60015b612a44573d80600081146129f1576040519150601f19603f3d011682016040523d82523d6000602084013e6129f6565b606091505b50600081511415612a3c576040517f08c379a0000000000000000000000000000000000000000000000000000000008152600401612a33906138ed565b60405180910390fd5b805181602001fd5b63150b7a0260e01b7bffffffffffffffffffffffffffffffffffffffffffffffffffffffff1916817bffffffffffffffffffffffffffffffffffffffffffffffffffffffff191614915050612a99565b600190505b949350505050565b606060006001612ab084612be8565b01905060008167ffffffffffffffff811115612af5577f4e487b7100000000000000000000000000000000000000000000000000000000600052604160045260246000fd5b6040519080825280601f01601f191660200182016040528015612b275781602001600182028036833780820191505090505b509050600082602001820190505b600115612bba578080600190039150507f3031323334353637383961626364656600000000000000000000000000000000600a86061a8153600a8581612ba4577f4e487b7100000000000000000000000000000000000000000000000000000000600052601260045260246000fd5b0494506000851415612bb557612bba565b612b35565b819350505050919050565b6000808273ffffffffffffffffffffffffffffffffffffffff163b119050919050565b600080600090507a184f03e93ff9f4daa797ed6e38ed64bf6a1f0100000000000000008310612c6c577a184f03e93ff9f4daa797ed6e38ed64bf6a1f0100000000000000008381612c62577f4e487b7100000000000000000000000000000000000000000000000000000000600052601260045260246000fd5b0492506040810190505b6d04ee2d6d415b85acef81000000008310612ccf576d04ee2d6d415b85acef81000000008381612cc5577f4e487b7100000000000000000000000000000000000000000000000000000000600052601260045260246000fd5b0492506020810190505b662386f26fc100008310612d2457662386f26fc100008381612d1a577f4e487b7100000000000000000000000000000000000000000000000000000000600052601260045260246000fd5b0492506010810190505b6305f5e1008310612d73576305f5e1008381612d69577f4e487b7100000000000000000000000000000000000000000000000000000000600052601260045260246000fd5b0492506008810190505b6127108310612dbe576127108381612db4577f4e487b7100000000000000000000000000000000000000000000000000000000600052601260045260246000fd5b0492506004810190505b60648310612e075760648381612dfd577f4e487b7100000000000000000000000000000000000000000000000000000000600052601260045260246000fd5b0492506002810190505b600a8310612e16576001810190505b80915050919050565b6040518060a0016040528060008152602001600073ffffffffffffffffffffffffffffffffffffffff168152602001600073ffffffffffffffffffffffffffffffffffffffff168152602001600081526020016000151581525090565b828054612e8890613d7d565b90600052602060002090601f016020900481019282612eaa5760008555612ef1565b82601f10612ec357805160ff1916838001178555612ef1565b82800160010185558215612ef1579182015b82811115612ef0578251825591602001919060010190612ed5565b5b509050612efe9190612f02565b5090565b5b80821115612f1b576000816000905550600101612f03565b5090565b6000612f32612f2d84613b4d565b613b28565b905082815260208101848484011115612f4a57600080fd5b612f55848285613d3b565b509392505050565b6000612f70612f6b84613b7e565b613b28565b905082815260208101848484011115612f8857600080fd5b612f93848285613d3b565b509392505050565b600081359050612faa816143c0565b92915050565b600081359050612fbf816143d7565b92915050565b600081359050612fd4816143ee565b92915050565b600081519050612fe9816143ee565b92915050565b600082601f83011261300057600080fd5b8135613010848260208601612f1f565b91505092915050565b600082601f83011261302a57600080fd5b813561303a848260208601612f5d565b91505092915050565b60008135905061305281614405565b92915050565b60006020828403121561306a57600080fd5b600061307884828501612f9b565b91505092915050565b6000806040838503121561309457600080fd5b60006130a285828601612f9b565b92505060206130b385828601612f9b565b9150509250929050565b6000806000606084860312156130d257600080fd5b60006130e086828701612f9b565b93505060206130f186828701612f9b565b925050604061310286828701613043565b9150509250925092565b6000806000806080858703121561312257600080fd5b600061313087828801612f9b565b945050602061314187828801612f9b565b935050604061315287828801613043565b925050606085013567ffffffffffffffff81111561316f57600080fd5b61317b87828801612fef565b91505092959194509250565b6000806040838503121561319a57600080fd5b60006131a885828601612f9b565b92505060206131b985828601612fb0565b9150509250929050565b600080604083850312156131d657600080fd5b60006131e485828601612f9b565b92505060206131f585828601613043565b9150509250929050565b60006020828403121561321157600080fd5b600061321f84828501612fc5565b91505092915050565b60006020828403121561323a57600080fd5b600061324884828501612fda565b91505092915050565b6000806040838503121561326457600080fd5b600083013567ffffffffffffffff81111561327e57600080fd5b61328a85828601613019565b925050602061329b85828601613043565b9150509250929050565b6000602082840312156132b757600080fd5b60006132c584828501613043565b91505092915050565b600080604083850312156132e157600080fd5b60006132ef85828601613043565b925050602061330085828601613043565b9150509250929050565b600061331683836136f8565b60a08301905092915050565b61332b81613cc7565b82525050565b61333a81613cb5565b82525050565b600061334b82613bbf565b6133558185613bed565b935061336083613baf565b8060005b83811015613391578151613378888261330a565b975061338383613be0565b925050600181019050613364565b5085935050505092915050565b6133a781613cd9565b82525050565b6133b681613cd9565b82525050565b60006133c782613bca565b6133d18185613bfe565b93506133e1818560208601613d4a565b6133ea81613eb6565b840191505092915050565b600061340082613bd5565b61340a8185613c0f565b935061341a818560208601613d4a565b61342381613eb6565b840191505092915050565b600061343982613bd5565b6134438185613c20565b9350613453818560208601613d4a565b80840191505092915050565b600061346c602d83613c0f565b915061347782613ec7565b604082019050919050565b600061348f601b83613c0f565b915061349a82613f16565b602082019050919050565b60006134b2603283613c0f565b91506134bd82613f3f565b604082019050919050565b60006134d5602583613c0f565b91506134e082613f8e565b604082019050919050565b60006134f8601c83613c0f565b915061350382613fdd565b602082019050919050565b600061351b602483613c0f565b915061352682614006565b604082019050919050565b600061353e601983613c0f565b915061354982614055565b602082019050919050565b6000613561602983613c0f565b915061356c8261407e565b604082019050919050565b6000613584602e83613c0f565b915061358f826140cd565b604082019050919050565b60006135a7604083613c0f565b91506135b28261411c565b604082019050919050565b60006135ca602083613c0f565b91506135d58261416b565b602082019050919050565b60006135ed602a83613c0f565b91506135f882614194565b604082019050919050565b6000613610603a83613c0f565b915061361b826141e3565b604082019050919050565b6000613633601883613c0f565b915061363e82614232565b602082019050919050565b6000613656602183613c0f565b91506136618261425b565b604082019050919050565b6000613679602483613c0f565b9150613684826142aa565b604082019050919050565b600061369c603d83613c0f565b91506136a7826142f9565b604082019050919050565b60006136bf603083613c0f565b91506136ca82614348565b604082019050919050565b60006136e2601c83613c0f565b91506136ed82614397565b602082019050919050565b60a08201600082015161370e6000850182613760565b5060208201516137216020850182613322565b5060408201516137346040850182613322565b5060608201516137476060850182613760565b50608082015161375a608085018261339e565b50505050565b61376981613d31565b82525050565b61377881613d31565b82525050565b600061378a828561342e565b9150613796828461342e565b91508190509392505050565b60006020820190506137b76000830184613331565b92915050565b60006080820190506137d26000830187613331565b6137df6020830186613331565b6137ec604083018561376f565b6137f960608301846133ad565b95945050505050565b60006080820190506138176000830187613331565b6138246020830186613331565b613831604083018561376f565b818103606083015261384381846133bc565b905095945050505050565b600060208201905081810360008301526138688184613340565b905092915050565b600060208201905061388560008301846133ad565b92915050565b600060208201905081810360008301526138a581846133f5565b905092915050565b600060208201905081810360008301526138c68161345f565b9050919050565b600060208201905081810360008301526138e681613482565b9050919050565b60006020820190508181036000830152613906816134a5565b9050919050565b60006020820190508181036000830152613926816134c8565b9050919050565b60006020820190508181036000830152613946816134eb565b9050919050565b600060208201905081810360008301526139668161350e565b9050919050565b6000602082019050818103600083015261398681613531565b9050919050565b600060208201905081810360008301526139a681613554565b9050919050565b600060208201905081810360008301526139c681613577565b9050919050565b600060208201905081810360008301526139e68161359a565b9050919050565b60006020820190508181036000830152613a06816135bd565b9050919050565b60006020820190508181036000830152613a26816135e0565b9050919050565b60006020820190508181036000830152613a4681613603565b9050919050565b60006020820190508181036000830152613a6681613626565b9050919050565b60006020820190508181036000830152613a8681613649565b9050919050565b60006020820190508181036000830152613aa68161366c565b9050919050565b60006020820190508181036000830152613ac68161368f565b9050919050565b60006020820190508181036000830152613ae6816136b2565b9050919050565b60006020820190508181036000830152613b06816136d5565b9050919050565b6000602082019050613b22600083018461376f565b92915050565b6000613b32613b43565b9050613b3e8282613daf565b919050565b6000604051905090565b600067ffffffffffffffff821115613b6857613b67613e87565b5b613b7182613eb6565b9050602081019050919050565b600067ffffffffffffffff821115613b9957613b98613e87565b5b613ba282613eb6565b9050602081019050919050565b6000819050602082019050919050565b600081519050919050565b600081519050919050565b600081519050919050565b6000602082019050919050565b600082825260208201905092915050565b600082825260208201905092915050565b600082825260208201905092915050565b600081905092915050565b6000613c3682613d31565b9150613c4183613d31565b9250827fffffffffffffffffffffffffffffffffffffffffffffffffffffffffffffffff03821115613c7657613c75613e29565b5b828201905092915050565b6000613c8c82613d31565b9150613c9783613d31565b925082821015613caa57613ca9613e29565b5b828203905092915050565b6000613cc082613d11565b9050919050565b6000613cd282613d11565b9050919050565b60008115159050919050565b60007fffffffff0000000000000000000000000000000000000000000000000000000082169050919050565b600073ffffffffffffffffffffffffffffffffffffffff82169050919050565b6000819050919050565b82818337600083830152505050565b60005b83811015613d68578082015181840152602081019050613d4d565b83811115613d77576000848401525b50505050565b60006002820490506001821680613d9557607f821691505b60208210811415613da957613da8613e58565b5b50919050565b613db882613eb6565b810181811067ffffffffffffffff82111715613dd757613dd6613e87565b5b80604052505050565b6000613deb82613d31565b91507fffffffffffffffffffffffffffffffffffffffffffffffffffffffffffffffff821415613e1e57613e1d613e29565b5b600182019050919050565b7f4e487b7100000000000000000000000000000000000000000000000000000000600052601160045260246000fd5b7f4e487b7100000000000000000000000000000000000000000000000000000000600052602260045260246000fd5b7f4e487b7100000000000000000000000000000000000000000000000000000000600052604160045260246000fd5b6000601f19601f8301169050919050565b7f4552433732313a2063616c6c6572206973206e6f7420746f6b656e206f776e6560008201527f72206f7220617070726f76656400000000000000000000000000000000000000602082015250565b7f436f756e7465723a2064656372656d656e74206f766572666c6f770000000000600082015250565b7f4552433732313a207472616e7366657220746f206e6f6e20455243373231526560008201527f63656976657220696d706c656d656e7465720000000000000000000000000000602082015250565b7f4552433732313a207472616e736665722066726f6d20696e636f72726563742060008201527f6f776e6572000000000000000000000000000000000000000000000000000000602082015250565b7f4552433732313a20746f6b656e20616c7265616479206d696e74656400000000600082015250565b7f4552433732313a207472616e7366657220746f20746865207a65726f2061646460008201527f7265737300000000000000000000000000000000000000000000000000000000602082015250565b7f4552433732313a20617070726f766520746f2063616c6c657200000000000000600082015250565b7f4552433732313a2061646472657373207a65726f206973206e6f74206120766160008201527f6c6964206f776e65720000000000000000000000000000000000000000000000602082015250565b7f45524337323155524953746f726167653a2055524920736574206f66206e6f6e60008201527f6578697374656e7420746f6b656e000000000000000000000000000000000000602082015250565b7f506c65617365207375626d6974207468652061736b696e67207072696365206960008201527f6e206f7264657220746f20636f6d706c65746520746865207075726368617365602082015250565b7f4552433732313a206d696e7420746f20746865207a65726f2061646472657373600082015250565b7f4f6e6c79206974656d206f776e65722063616e20706572666f726d207468697360008201527f206f7065726174696f6e00000000000000000000000000000000000000000000602082015250565b7f6f6e6c79206f776e6572206f6620746865206d61726b6574706c61636520636160008201527f6e206368616e676520746865206c697374696e67207072696365000000000000602082015250565b7f4552433732313a20696e76616c696420746f6b656e2049440000000000000000600082015250565b7f4552433732313a20617070726f76616c20746f2063757272656e74206f776e6560008201527f7200000000000000000000000000000000000000000000000000000000000000602082015250565b7f5072696365206d75737420626520657175616c20746f206c697374696e67207060008201527f7269636500000000000000000000000000000000000000000000000000000000602082015250565b7f4552433732313a20617070726f76652063616c6c6572206973206e6f7420746f60008201527f6b656e206f776e6572206f7220617070726f76656420666f7220616c6c000000602082015250565b7f4f6e6c79206d61726b6574706c616365206f776e65722063616e20757064617460008201527f65206c697374696e672070726963652e00000000000000000000000000000000602082015250565b7f5072696365206d757374206265206174206c6561737420312077656900000000600082015250565b6143c981613cb5565b81146143d457600080fd5b50565b6143e081613cd9565b81146143eb57600080fd5b50565b6143f781613ce5565b811461440257600080fd5b50565b61440e81613d31565b811461441957600080fd5b5056fea26469706673582212201b654b4df6f186d3148899c425dbab4e05142e207ce95986248334b5849eea9264736f6c63430008040033",
  "linkReferences": {},
  "deployedLinkReferences": {}
}